:02000000B52821
:10000800803120007F08F8002700931E0C280D2857
:100018001A2893128131DD218031F4302000A400A8
:100028000130A5008131D02180311A280B1D1D28EF
:100038001E28B1280B112000150800390538950035
:100048007C08031D28282C282C0019171C17302879
:100058002C0019131C13302801302000A20700308F
:10006800A33D00302302A23003192202031C3D28BD
:100078003E28B128A201A301250824040319452814
:1000880046284B280130A4020030A53B4B288C1A87
:100098004E284F2873280130A0070030A13D0030BA
:1000A8002102203003192002031C5B285C289F28AA
:1000B800A001A1010330F0000030F1007908013EF1
:1000C800F20000307A3DF30081311421803171084B
:1000D800FA01FA077008F901F9079F289F282000FC
:1000E800A001A1019F289F28F901FA017B28FC01A2
:1000F800B12805307B020318822883288628FC0152
:10010800FC0A8828FC0188280F30F0000030F10034
:100118007B08013EF200003003180130F300803103
:10012800B62080317008F7007708FB00B128FC0181
:10013800FC0AB128B1287A08003A0319A4287828BB
:100148007908003A03197B28013A03197D28033AF4
:1001580003199B287828B128B12878082000FF00C7
:100168000900AE29F601F31FBA28BB28C328F209F3
:10017800F309F20A0319F30AF601F60AC328F11F74
:10018800C628C728CD28F009F109F00A0319F10A91
:10019800CD28710870040319D228D3280229F50143
:1001A800F50AE0280130F035F10D890BD728013028
:1001B800F4007408F507E028F11FE328E428D6289E
:1001C800E628E62871087302031DEC2870087202FD
:1001D800031CEF28F028F5287008F2027108F33B99
:1001E800F5280130F136F00C890BF6280130F502BC
:1001F800031DFF280029E628022902297608031D85
:1002080006290C29F209F309F20A0319F30A0C2941
:100218007308F101F1077208F001F00713290800CB
:1002280071087004031919291A294929F501F50AD1
:1002380027290130F035F10D890B1E290130F40012
:100248007408F5072729F11F2A292B291D292D298B
:100258002D2971087302031D332970087202031CCB
:10026800362937293C297008F2027108F33B3C29EA
:100278000130F136F00C890B3D290130F502031DE0
:10028800462947292D29492949297308F101F107E8
:100298007208F001F007502908008131E32181310B
:1002A80081319D2181318131BA2181318131E7212B
:1002B800813181317921813161297A087904031DDD
:1002C800662967296129200025082404031D6D2952
:1002D8006E2961298131D72181318131C52181314F
:1002E8006300612961296129B528FC3020009C053B
:1002F8001B08003927389B001C152C0019121808F8
:1003080000390438980018080039143898003F302C
:100318009705991719171C121B08003904389B00F8
:100328001B08003914389B003F309A059C171C178E
:10033800080020008C0122008C0123008C01FB3076
:1003480021008C0020008E0122008E01F83021004F
:100358008E000800F901FA01FB01FC01A001A101CE
:10036800A201A301A401A5012000512920009501A3
:1003780021009512951520001508003905389500BB
:1003880008008B122C00191399131C139C132000BE
:100398001C1122008C1208008B1620001C152C0042
:1003A80099179C1708002700931292160B108B15AB
:1003B80008008B150B10270092169312080078304E
:0E03C8002100990408000B118B168B170800FA
:020000040001F9
:02000E00E4FF0D
:00000001FF
