:02000000922844
:10000800803120007F08F8002700931E13289312E0
:100018006821F4302000A4000130A50072210B1DD6
:100028008E280B11200015080039053895007C082A
:100038000319212821000C11232821000C15013057
:100048002000A2070030A33D00302302A23003198C
:100058002202031C8E28A201A301250824040319E7
:1000680039280130A4020030A53B8C1A5A280130E7
:10007800A0070030A13D00302102203003192002E2
:10008800031C7E28A001A1010330F0000030F1001C
:100098007908013EF20000307A3DF300E62071084D
:1000A800FA01FA077008F901F9077E282000A00173
:1000B800A1017E28F901FA01FC018E2805307B0296
:1000C80003186928FC01FC0A6A28FC010F30F000BB
:1000D8000030F1007B08013EF200003003180130C7
:1000E800F3009F207008F7007708FB008E28FC01BA
:1000F800FC0A8E287A08003A031983285E287908B2
:10010800003A03196028013A03196228033A0319CF
:100118007B285E2878082000FF0009009328F90151
:10012800FA01FB01FC01A001A101A201A301A401A4
:10013800A50120002A29F601F31FA928F209F309CD
:10014800F20A0319F30AF601F60AF11FB028F009BA
:10015800F109F00A0319F10A710870040319D72884
:10016800F501F50AF11BC2280130F035F10D890BB4
:10017800B9280130F4007408F507B628710873022D
:10018800031DC82870087202031CCE287008F202EA
:100198007108F33B0130F136F00C890BCF280130A0
:1001A800F502031DC22876080319DF28F209F309AE
:1001B800F20A0319F30A7308F101F1077208F00152
:1001C800F00708007108700403190D29F501F50AF4
:1001D800F11BF8280130F035F10D890BEF280130BB
:1001E800F4007408F507EC2871087302031DFE2853
:1001F80070087202031C04297008F2027108F33BAC
:100208000130F136F00C890B05290130F502031D88
:10021800F8287308F101F1077208F001F0070800E7
:10022800FC3020009C051B08003913389B001C1566
:1002380025001308F0390C3893003F309305110856
:1002480000390738910030309304080062213C21BE
:1002580048216E2114217A087904031D2F292000D2
:1002680025082404031D2F295C21532163002F290D
:1002780020008C0122008C0123008C01FB3021001E
:100288008C0022001D100800200095012100951205
:1002980095152000150800390538950008000B1140
:1002A8008B1221000C1520001C1122008C12080052
:1002B8002700931292160B108B1508007830210036
:1002C80099041A1A080065298B150B102700921635
:1002D800931208000B118B170B1708008B162000C0
:0402E8001C150800D9
:020000040001F9
:04000E00E4FFFFFF0D
:00000001FF
