:040000000128762F2E
:100EDC008B15270092160800783021009904080021
:100EEC00F901FA0120008B2F20008C0122008C01CB
:100EFC0023008C01FB3021008C0020008E0122008D
:100F0C008E01F83021008E000800F701F8018731BE
:100F1C007227873187317A27873187316E2787315E
:100F2C00972F2700931E9B2F9C2FED2F931291161A
:100F3C000330F6000830F5007830F400F40BA42FE1
:100F4C00F50BA42FF60BA42F22008C1AAE2FAF2F6B
:100F5C00C12F2700931AB32FB42FC12F7708013E4E
:100F6C00F4000030783DF50001307405F7000030D6
:100F7C007505F800C12F270091129312ED2FED2F5C
:100F8C00F701F801C92F22000C11972F22000C1524
:100F9C000330F6000830F5007830F400F40BD42F51
:100FAC00F50BD42FF60BD42F22000C110530F600C4
:100FBC000F30F500F430F400F40BE22FF50BE22FB8
:100FCC00F60BE22F972F22000C15972F972F7808EE
:100FDC00003A0319F22FC62F7708003A0319C92FCC
:100FEC00013A0319CC2F033A0319E92FC62F972F77
:040FFC00972F012802
:020000040001F9
:08000000FF3FFF3FFF3FFF3F00
:04000E00E4FFFFFF0D
:00000001FF
