:02000000B32823
:10000800803120007F08F8002700931E0C280D2857
:100018001A2893128131CB218031F4302000A400BA
:100028000130A5008131C52180311A280B1D1D28FA
:100038001E28AF280B112000150800390538950037
:100048007C08031D28282B282C0019172E282C0083
:1000580019132E2801302000A2070030A33D0030DC
:100068002302A23003192202031C3B283C28AF2894
:10007800A201A30125082404031943284428492878
:100088000130A4020030A53B49288C1A4C284D2881
:1000980071280130A0070030A13D00302102203036
:1000A80003192002031C59285A289D28A001A101E0
:1000B8000330F0000030F1007908013EF200003012
:1000C8007A3DF3008131122180317108FA01FA0773
:1000D8007008F901F9079D289D282000A001A101B9
:1000E8009D289D28F901FA017928FC01AF280530DF
:1000F8007B020318802881288428FC01FC0A8628B2
:10010800FC0186280A30F0000030F1007B08013E2F
:10011800F200003003180130F3008031B420803140
:100128007008F7007708FB00AF28FC01FC0AAF282D
:10013800AF287A08003A0319A22876287908003AE5
:1001480003197928013A03197B28033A03199928D6
:100158007628AF28AF2878082000FF0009009F29DB
:10016800F601F31FB828B928C128F209F309F20AE1
:100178000319F30AF601F60AC128F11FC428C52895
:10018800CB28F009F109F00A0319F10ACB28710804
:1001980070040319D028D1280029F501F50ADE28B2
:1001A8000130F035F10D890BD5280130F4007408C1
:1001B800F507DE28F11FE128E228D428E428E428FE
:1001C80071087302031DEA2870087202031CED28E7
:1001D800EE28F3287008F2027108F33BF328013087
:1001E800F136F00C890BF4280130F502031DFD28C7
:1001F800FE28E428002900297608031D04290A2975
:10020800F209F309F20A0319F30A0A297308F1013A
:10021800F1077208F001F00711290800710870044D
:100228000319172918294729F501F50A2529013045
:10023800F035F10D890B1C290130F4007408F5071D
:100248002529F11F282929291B292B292B29710840
:100258007302031D312970087202031C34293529E1
:100268003A297008F2027108F33B3A290130F13655
:10027800F00C890B3B290130F502031D442945295F
:100288002B29472947297308F101F1077208F00162
:10029800F0074E2908008131D121813181318E2129
:1002A80081318131AB2181318131D5218131813158
:1002B800772181315F297A087904031D642965292A
:1002C8005F29200025082404031D6B296C295F2958
:1002D8008131BF2181318131B621813163005F29AC
:1002E8005F295F29B328FC3020009C051B080039D2
:1002F80027389B001C152C001912180800390438DF
:10030800980018080039143898003F309705991755
:100318001917080020008C0122008C0123008C0191
:10032800FB3021008C0020008E0122008E01F83065
:1003380021008E000800F901FA01FB01FC01A0016F
:10034800A101A201A301A401A50120004F292000B9
:1003580095012100951295152000150800390538DA
:10036800950008008B122C001913991320001C11FA
:1003780022008C1208002700931292160B108B157E
:1003880008008B1620001C152C00991708008B15E7
:100398000B10270092169312080078302100990458
:0A03A80008000B118B168B170800DC
:020000040001F9
:02000E00E4FF0D
:00000001FF
