:02000000A9282D
:10000800803120007F08F800111C0B280C282728B5
:100018001110FF309704160800395F3896007C08E5
:10002800031D1728242800300C1D0130F700F70D98
:10003800F70D22000C087706FB3977068C00272875
:1000480022000C1127280B1D2A282B28A5280B1164
:10005800200015080039053895000130A207003046
:10006800A33D03302302EA3003192202031C3D2872
:100078003E28A528A201A3018C1A432844286828F1
:100088000130A0070030A13D0030210205300319DE
:100098002002031C502851289328A001A1010330F5
:1000A800F0000030F1007908013EF20000307A3D9E
:1000B800F3008131082180317108FA01FA077008CC
:1000C800F901F907932893282000A001A10193289A
:1000D8009328F901FA017028FC01A528FB08031DE3
:1000E800762877287A28FC01FC0A7C28FC017C28E1
:1000F8000330F0000030F1007B08013EF2000030D0
:1001080003180130F3008031AA2080317008F7000D
:100118007708FB00A528FC01FC0AA528A5287A0871
:10012800003A031998286D287908003A03197028AD
:10013800013A03197228033A03198F286D28A52854
:10014800A52878082000FF0009008029F601F31F80
:10015800AE28AF28B728F209F309F20A0319F30AFF
:10016800F601F60AB728F11FBA28BB28C128F009FA
:10017800F109F00A0319F10AC1287108700403197A
:10018800C628C728F628F501F50AD4280130F03525
:10019800F10D890BCB280130F4007408F507D42839
:1001A800F11FD728D828CA28DA28DA287108730254
:1001B800031DE02870087202031CE328E428E928DC
:1001C8007008F2027108F33BE9280130F136F00CAF
:1001D800890BEA280130F502031DF328F428DA28F0
:1001E800F628F6287608031DFA280029F209F309EB
:1001F800F20A0319F30A00297308F101F1077208DA
:10020800F001F007072908007108700403190D2987
:100218000E293D29F501F50A1B290130F035F10DAC
:10022800890B12290130F4007408F5071B29F11F06
:100238001E291F2911292129212971087302031D4B
:10024800272970087202031C2A292B2930297008D3
:10025800F2027108F33B30290130F136F00C890BBA
:1002680031290130F502031D3A293B2921293D296D
:100278003D297308F101F1077208F001F0074429DC
:1002880008002000950121009512951520001508F9
:100298000039053895009601970118083F3940380C
:1002A80098001814FF309704160800395F38960034
:1002B8001508003905389500080020008C01220037
:1002C8008C0123008C01FB3021008C0020008E0162
:1002D80022008E01F83021008E0008008131932120
:1002E80081318131612181318131452181318131F2
:1002F8008A2181317E29A928F901FA01FB01FC0133
:10030800A001A101A201A301200072290B118B16E3
:1003180020001110210011148B170B1708007830DA
:0603280021009904080009
:020000040001F9
:02000E00E4FF0D
:00000001FF
