:020000005B287B
:10000800803120007F08F8000B1D0B280C2857288A
:100018000B110130F9070030FA3D03307A02EA305B
:1000280003197902031C19281A285728F901FA011B
:100038004528FC01FD01202822000C115728FB0847
:10004800031D272828282B2822000C152E282200DB
:100058000C112E280330F0000030F1007B08013E1F
:10006800F200003003180130F30080315C20803149
:100078007008F7007708FB00572822000C1557284E
:1000880057287D08003A03194A281D287C08003A99
:1000980003192028013A03192328033A0319412890
:1000A8001D285728572878082000FF000900D9285C
:1000B800F601F31F602861286928F209F309F20A9A
:1000C8000319F30AF601F60A6928F11F6C286D284E
:1000D8007328F009F109F00A0319F10A7328710865
:1000E8007004031978287928A828F501F50A8628C4
:1000F8000130F035F10D890B7D280130F4007408CA
:10010800F5078628F11F89288A287C288C288C28BE
:1001180071087302031D922870087202031C952847
:1001280096289B287008F2027108F33B9B2801303F
:10013800F136F00C890B9C280130F502031DA52827
:10014800A6288C28A828A8287608031DAC28B22839
:10015800F209F309F20A0319F30AB2287308F10144
:10016800F1077208F001F007B928080020008C0197
:1001780022008C0123008C01FB3021008C00200020
:100188008E0122008E01F83021008E000800803197
:10019800EC2080318031BA2080318031E6208031F6
:1001A8008031F0208031D7285B28F901FA01FB0162
:1001B8008031F4208031FC008031F5208031FD0051
:1001C8002000CB28200095012100951295150800E4
:1001D80078302100990408000B118B168B17080042
:0401E80001340034AA
:020000040001F9
:02000E00E4FF0D
:00000001FF
