:020000001328C3
:10000800803120007F08F8002700931E12289312E1
:100018004320F430F4000130F50050201228142851
:10002800F001F101F201F301F401F501F601F70124
:10003800A001A1012000202833204F204C204E2071
:100048003D204920262873087204031D27287508B7
:100058007404031D27283D20492063002728200019
:100068008C0122008C0123008C01FF3021008C00C0
:1000780008002700931292160B108B1508008B1599
:100088000B10270092169312080022008C12080009
:0A0098008B1708000800080008009C
:020000040001F9
:04000E00E4FFFFFF0D
:00000001FF
