:02000000762860
:100008007E14803120007F08F9002700931E1428F1
:1000180093123521F4302000A4000130A5004021BE
:100028000B1D71280B110530200095007C08031961
:1000380021280C1522000C1524280C1122000C1163
:1000480020002308F8002208F700A20A0319A30ACF
:1000580000307802A13003197702031C7128A2012D
:10006800A3012408250403193D280130A402003007
:10007800A53B2000A001A1016128FA01FB01FC01B8
:10008800712803307D0203184C28FC01FC0A4D2816
:10009800FC010F30F0000030F1007D08013EF20055
:1000A800003003180130F30087207008F700770844
:1000B800FD007128FC01FC0A71287B08003A03192D
:1000C800662841287A08003A03194328013A031997
:1000D8004528033A03195E28412879082000FF00C3
:1000E8007E1009007728FD01A001A101A201A3014A
:1000F800A401A5014421FA004521FB004621FC008A
:100108007E102000F828F601F31F9128F209F30960
:10011800F20A0319F30AF601F60AF11F9828F00902
:10012800F109F00A0319F10A700871040319BF28CC
:10013800F501F50AF11BAA280130F035F10D890BFC
:10014800A1280130F4007408F5079E28710873028D
:10015800031DB02870087202031CB6287008F2024A
:100168007108F33B0130F136F00C890BB7280130E8
:10017800F502031DAA2876080319C728F209F3090E
:10018800F20A0319F30A7308F1007208F000080074
:10019800700871040319F328F501F50AF11BDE282C
:1001A8000130F035F10D890BD5280130F4007408C1
:1001B800F507D22871087302031DE428700872023B
:1001C800031CEA287008F2027108F33B0130F1368B
:1001D800F00C890BEB280130F502031DDE287308AB
:1001E800F1007208F00008002F210D2120000C15E5
:1001F80022000C1520213B217A087B04031D0029CD
:10020800200024082504031D002929211721630043
:10021800002920008C0122008C0123008C01FB3076
:1002280021008C0008000B118B1221000C152000F6
:100238001C1122008C120800200095012100951243
:100248009515053020009500080027009312921696
:100258000B108B1508007830210099041A1A080031
:1002680032298B150B1027009216931208000B11D8
:100278008B170B178B1608008B1620001C1508000F
:06028800013400340134D2
:020000040001F9
:04000E00E4FFFFFF0D
:00000001FF
